{
  "_format": "hh-sol-artifact-1",
  "contractName": "SubscriptionNFTSimple",
  "sourceName": "contracts/SubscriptionNFTSimple.sol",
  "abi": [
    {
      "inputs": [],
      "stateMutability": "nonpayable",
      "type": "constructor"
    },
    {
      "inputs": [
        {
          "internalType": "address",
          "name": "sender",
          "type": "address"
        },
        {
          "internalType": "uint256",
          "name": "tokenId",
          "type": "uint256"
        },
        {
          "internalType": "address",
          "name": "owner",
          "type": "address"
        }
      ],
      "name": "ERC721IncorrectOwner",
      "type": "error"
    },
    {
      "inputs": [
        {
          "internalType": "address",
          "name": "operator",
          "type": "address"
        },
        {
          "internalType": "uint256",
          "name": "tokenId",
          "type": "uint256"
        }
      ],
      "name": "ERC721InsufficientApproval",
      "type": "error"
    },
    {
      "inputs": [
        {
          "internalType": "address",
          "name": "approver",
          "type": "address"
        }
      ],
      "name": "ERC721InvalidApprover",
      "type": "error"
    },
    {
      "inputs": [
        {
          "internalType": "address",
          "name": "operator",
          "type": "address"
        }
      ],
      "name": "ERC721InvalidOperator",
      "type": "error"
    },
    {
      "inputs": [
        {
          "internalType": "address",
          "name": "owner",
          "type": "address"
        }
      ],
      "name": "ERC721InvalidOwner",
      "type": "error"
    },
    {
      "inputs": [
        {
          "internalType": "address",
          "name": "receiver",
          "type": "address"
        }
      ],
      "name": "ERC721InvalidReceiver",
      "type": "error"
    },
    {
      "inputs": [
        {
          "internalType": "address",
          "name": "sender",
          "type": "address"
        }
      ],
      "name": "ERC721InvalidSender",
      "type": "error"
    },
    {
      "inputs": [
        {
          "internalType": "uint256",
          "name": "tokenId",
          "type": "uint256"
        }
      ],
      "name": "ERC721NonexistentToken",
      "type": "error"
    },
    {
      "inputs": [
        {
          "internalType": "address",
          "name": "owner",
          "type": "address"
        }
      ],
      "name": "OwnableInvalidOwner",
      "type": "error"
    },
    {
      "inputs": [
        {
          "internalType": "address",
          "name": "account",
          "type": "address"
        }
      ],
      "name": "OwnableUnauthorizedAccount",
      "type": "error"
    },
    {
      "anonymous": false,
      "inputs": [
        {
          "indexed": true,
          "internalType": "address",
          "name": "owner",
          "type": "address"
        },
        {
          "indexed": true,
          "internalType": "address",
          "name": "approved",
          "type": "address"
        },
        {
          "indexed": true,
          "internalType": "uint256",
          "name": "tokenId",
          "type": "uint256"
        }
      ],
      "name": "Approval",
      "type": "event"
    },
    {
      "anonymous": false,
      "inputs": [
        {
          "indexed": true,
          "internalType": "address",
          "name": "owner",
          "type": "address"
        },
        {
          "indexed": true,
          "internalType": "address",
          "name": "operator",
          "type": "address"
        },
        {
          "indexed": false,
          "internalType": "bool",
          "name": "approved",
          "type": "bool"
        }
      ],
      "name": "ApprovalForAll",
      "type": "event"
    },
    {
      "anonymous": false,
      "inputs": [
        {
          "indexed": true,
          "internalType": "address",
          "name": "previousOwner",
          "type": "address"
        },
        {
          "indexed": true,
          "internalType": "address",
          "name": "newOwner",
          "type": "address"
        }
      ],
      "name": "OwnershipTransferred",
      "type": "event"
    },
    {
      "anonymous": false,
      "inputs": [
        {
          "indexed": true,
          "internalType": "address",
          "name": "user",
          "type": "address"
        },
        {
          "indexed": false,
          "internalType": "uint256",
          "name": "tokenId",
          "type": "uint256"
        },
        {
          "indexed": false,
          "internalType": "string",
          "name": "tierName",
          "type": "string"
        }
      ],
      "name": "Subscribed",
      "type": "event"
    },
    {
      "anonymous": false,
      "inputs": [
        {
          "indexed": true,
          "internalType": "address",
          "name": "from",
          "type": "address"
        },
        {
          "indexed": true,
          "internalType": "address",
          "name": "to",
          "type": "address"
        },
        {
          "indexed": true,
          "internalType": "uint256",
          "name": "tokenId",
          "type": "uint256"
        }
      ],
      "name": "Transfer",
      "type": "event"
    },
    {
      "inputs": [
        {
          "internalType": "address",
          "name": "to",
          "type": "address"
        },
        {
          "internalType": "uint256",
          "name": "tokenId",
          "type": "uint256"
        }
      ],
      "name": "approve",
      "outputs": [],
      "stateMutability": "nonpayable",
      "type": "function"
    },
    {
      "inputs": [
        {
          "internalType": "address",
          "name": "owner",
          "type": "address"
        }
      ],
      "name": "balanceOf",
      "outputs": [
        {
          "internalType": "uint256",
          "name": "",
          "type": "uint256"
        }
      ],
      "stateMutability": "view",
      "type": "function"
    },
    {
      "inputs": [
        {
          "internalType": "uint256",
          "name": "tokenId",
          "type": "uint256"
        }
      ],
      "name": "getApproved",
      "outputs": [
        {
          "internalType": "address",
          "name": "",
          "type": "address"
        }
      ],
      "stateMutability": "view",
      "type": "function"
    },
    {
      "inputs": [
        {
          "internalType": "address",
          "name": "user",
          "type": "address"
        }
      ],
      "name": "isActive",
      "outputs": [
        {
          "internalType": "bool",
          "name": "",
          "type": "bool"
        }
      ],
      "stateMutability": "view",
      "type": "function"
    },
    {
      "inputs": [
        {
          "internalType": "address",
          "name": "owner",
          "type": "address"
        },
        {
          "internalType": "address",
          "name": "operator",
          "type": "address"
        }
      ],
      "name": "isApprovedForAll",
      "outputs": [
        {
          "internalType": "bool",
          "name": "",
          "type": "bool"
        }
      ],
      "stateMutability": "view",
      "type": "function"
    },
    {
      "inputs": [],
      "name": "name",
      "outputs": [
        {
          "internalType": "string",
          "name": "",
          "type": "string"
        }
      ],
      "stateMutability": "view",
      "type": "function"
    },
    {
      "inputs": [],
      "name": "owner",
      "outputs": [
        {
          "internalType": "address",
          "name": "",
          "type": "address"
        }
      ],
      "stateMutability": "view",
      "type": "function"
    },
    {
      "inputs": [
        {
          "internalType": "uint256",
          "name": "tokenId",
          "type": "uint256"
        }
      ],
      "name": "ownerOf",
      "outputs": [
        {
          "internalType": "address",
          "name": "",
          "type": "address"
        }
      ],
      "stateMutability": "view",
      "type": "function"
    },
    {
      "inputs": [],
      "name": "renounceOwnership",
      "outputs": [],
      "stateMutability": "nonpayable",
      "type": "function"
    },
    {
      "inputs": [
        {
          "internalType": "address",
          "name": "from",
          "type": "address"
        },
        {
          "internalType": "address",
          "name": "to",
          "type": "address"
        },
        {
          "internalType": "uint256",
          "name": "tokenId",
          "type": "uint256"
        }
      ],
      "name": "safeTransferFrom",
      "outputs": [],
      "stateMutability": "nonpayable",
      "type": "function"
    },
    {
      "inputs": [
        {
          "internalType": "address",
          "name": "from",
          "type": "address"
        },
        {
          "internalType": "address",
          "name": "to",
          "type": "address"
        },
        {
          "internalType": "uint256",
          "name": "tokenId",
          "type": "uint256"
        },
        {
          "internalType": "bytes",
          "name": "data",
          "type": "bytes"
        }
      ],
      "name": "safeTransferFrom",
      "outputs": [],
      "stateMutability": "nonpayable",
      "type": "function"
    },
    {
      "inputs": [
        {
          "internalType": "address",
          "name": "operator",
          "type": "address"
        },
        {
          "internalType": "bool",
          "name": "approved",
          "type": "bool"
        }
      ],
      "name": "setApprovalForAll",
      "outputs": [],
      "stateMutability": "nonpayable",
      "type": "function"
    },
    {
      "inputs": [
        {
          "internalType": "string",
          "name": "tierName",
          "type": "string"
        },
        {
          "internalType": "uint256",
          "name": "duration",
          "type": "uint256"
        }
      ],
      "name": "subscribe",
      "outputs": [],
      "stateMutability": "nonpayable",
      "type": "function"
    },
    {
      "inputs": [
        {
          "internalType": "uint256",
          "name": "",
          "type": "uint256"
        }
      ],
      "name": "subscriptions",
      "outputs": [
        {
          "internalType": "string",
          "name": "tierName",
          "type": "string"
        },
        {
          "internalType": "uint256",
          "name": "expiryDate",
          "type": "uint256"
        }
      ],
      "stateMutability": "view",
      "type": "function"
    },
    {
      "inputs": [
        {
          "internalType": "bytes4",
          "name": "interfaceId",
          "type": "bytes4"
        }
      ],
      "name": "supportsInterface",
      "outputs": [
        {
          "internalType": "bool",
          "name": "",
          "type": "bool"
        }
      ],
      "stateMutability": "view",
      "type": "function"
    },
    {
      "inputs": [],
      "name": "symbol",
      "outputs": [
        {
          "internalType": "string",
          "name": "",
          "type": "string"
        }
      ],
      "stateMutability": "view",
      "type": "function"
    },
    {
      "inputs": [
        {
          "internalType": "uint256",
          "name": "tokenId",
          "type": "uint256"
        }
      ],
      "name": "tokenURI",
      "outputs": [
        {
          "internalType": "string",
          "name": "",
          "type": "string"
        }
      ],
      "stateMutability": "view",
      "type": "function"
    },
    {
      "inputs": [
        {
          "internalType": "address",
          "name": "from",
          "type": "address"
        },
        {
          "internalType": "address",
          "name": "to",
          "type": "address"
        },
        {
          "internalType": "uint256",
          "name": "tokenId",
          "type": "uint256"
        }
      ],
      "name": "transferFrom",
      "outputs": [],
      "stateMutability": "nonpayable",
      "type": "function"
    },
    {
      "inputs": [
        {
          "internalType": "address",
          "name": "newOwner",
          "type": "address"
        }
      ],
      "name": "transferOwnership",
      "outputs": [],
      "stateMutability": "nonpayable",
      "type": "function"
    },
    {
      "inputs": [
        {
          "internalType": "address",
          "name": "",
          "type": "address"
        }
      ],
      "name": "userSubscription",
      "outputs": [
        {
          "internalType": "uint256",
          "name": "",
          "type": "uint256"
        }
      ],
      "stateMutability": "view",
      "type": "function"
    }
  ],
  "bytecode": "0x60806040523480156200001157600080fd5b50336040518060400160405280600b81526020016a23bab4b63223349029bab160a91b8152506040518060400160405280600581526020016423a329aaa160d91b8152508160009081620000669190620001b0565b506001620000758282620001b0565b5050506001600160a01b038116620000a757604051631e4fbdf760e01b81526000600482015260240160405180910390fd5b620000b281620000b9565b506200027c565b600680546001600160a01b038381166001600160a01b0319831681179093556040519116919082907f8be0079c531659141344cd1fd0a4f28419497f9722a3daafe3b4186f6b6457e090600090a35050565b634e487b7160e01b600052604160045260246000fd5b600181811c908216806200013657607f821691505b6020821081036200015757634e487b7160e01b600052602260045260246000fd5b50919050565b601f821115620001ab57600081815260208120601f850160051c81016020861015620001865750805b601f850160051c820191505b81811015620001a75782815560010162000192565b5050505b505050565b81516001600160401b03811115620001cc57620001cc6200010b565b620001e481620001dd845462000121565b846200015d565b602080601f8311600181146200021c5760008415620002035750858301515b600019600386901b1c1916600185901b178555620001a7565b600085815260208120601f198616915b828110156200024d578886015182559484019460019091019084016200022c565b50858210156200026c5787850151600019600388901b60f8161c191681555b5050505050600190811b01905550565b611501806200028c6000396000f3fe608060405234801561001057600080fd5b506004361061012c5760003560e01c806370a08231116100ad578063a22cb46511610071578063a22cb46514610290578063b88d4fde146102a3578063c87b56dd146102b6578063e985e9c5146102c9578063f2fde38b146102dc57600080fd5b806370a0823114610249578063715018a61461025c5780638da5cb5b1461026457806395d89b41146102755780639f8a13d71461027d57600080fd5b806323b872dd116100f457806323b872dd146101dc5780632d5bbf60146101ef57806342842e0e14610210578063495dcbe3146102235780636352211e1461023657600080fd5b806301ffc9a71461013157806306fdde0314610159578063081812fc1461016e578063095ea7b314610199578063234d3449146101ae575b600080fd5b61014461013f366004610f7f565b6102ef565b60405190151581526020015b60405180910390f35b610161610341565b6040516101509190610fec565b61018161017c366004610fff565b6103d3565b6040516001600160a01b039091168152602001610150565b6101ac6101a7366004611034565b6103fc565b005b6101ce6101bc36600461105e565b60096020526000908152604090205481565b604051908152602001610150565b6101ac6101ea366004611079565b61040b565b6102026101fd366004610fff565b61049b565b6040516101509291906110b5565b6101ac61021e366004611079565b61053f565b6101ac610231366004611163565b61055f565b610181610244366004610fff565b610649565b6101ce61025736600461105e565b610654565b6101ac61069c565b6006546001600160a01b0316610181565b6101616106b0565b61014461028b36600461105e565b6106bf565b6101ac61029e3660046111bc565b610702565b6101ac6102b13660046111f8565b61070d565b6101616102c4366004610fff565b610725565b6101446102d7366004611274565b61079a565b6101ac6102ea36600461105e565b6107c8565b60006001600160e01b031982166380ac58cd60e01b148061032057506001600160e01b03198216635b5e139f60e01b145b8061033b57506301ffc9a760e01b6001600160e01b03198316145b92915050565b606060008054610350906112a7565b80601f016020809104026020016040519081016040528092919081815260200182805461037c906112a7565b80156103c95780601f1061039e576101008083540402835291602001916103c9565b820191906000526020600020905b8154815290600101906020018083116103ac57829003601f168201915b5050505050905090565b60006103de82610806565b506000828152600460205260409020546001600160a01b031661033b565b61040782823361083f565b5050565b6001600160a01b03821661043a57604051633250574960e11b8152600060048201526024015b60405180910390fd5b600061044783833361084c565b9050836001600160a01b0316816001600160a01b031614610495576040516364283d7b60e01b81526001600160a01b0380861660048301526024820184905282166044820152606401610431565b50505050565b6008602052600090815260409020805481906104b6906112a7565b80601f01602080910402602001604051908101604052809291908181526020018280546104e2906112a7565b801561052f5780601f106105045761010080835404028352916020019161052f565b820191906000526020600020905b81548152906001019060200180831161051257829003601f168201915b5050505050908060010154905082565b61055a8383836040518060200160405280600081525061070d565b505050565b336000908152600960205260409020541561058d573360009081526009602052604090205461058d90610945565b6007805490600061059d836112f7565b90915550506007546105af3382610980565b604051806040016040528084815260200183426105cc9190611310565b90526000828152600860205260409020815181906105ea9082611369565b50602091820151600190910155336000818152600990925260409182902083905590517ffa9a021c7def24bcea911b630d5a87087d34e9defb3f81b219ec8166861851bd9061063c9084908790611429565b60405180910390a2505050565b600061033b82610806565b60006001600160a01b038216610680576040516322718ad960e21b815260006004820152602401610431565b506001600160a01b031660009081526003602052604090205490565b6106a46109e5565b6106ae6000610a12565b565b606060018054610350906112a7565b6001600160a01b0381166000908152600960205260408120548082036106e85750600092915050565b600090815260086020526040902060010154421092915050565b610407338383610a64565b61071884848461040b565b6104953385858585610b03565b606061073082610806565b50600061074860408051602081019091526000815290565b905060008151116107685760405180602001604052806000815250610793565b8061077284610c2e565b604051602001610783929190611442565b6040516020818303038152906040525b9392505050565b6001600160a01b03918216600090815260056020908152604080832093909416825291909152205460ff1690565b6107d06109e5565b6001600160a01b0381166107fa57604051631e4fbdf760e01b815260006004820152602401610431565b61080381610a12565b50565b6000818152600260205260408120546001600160a01b03168061033b57604051637e27328960e01b815260048101849052602401610431565b61055a8383836001610cc1565b6000828152600260205260408120546001600160a01b039081169083161561087957610879818486610dc7565b6001600160a01b038116156108b757610896600085600080610cc1565b6001600160a01b038116600090815260036020526040902080546000190190555b6001600160a01b038516156108e6576001600160a01b0385166000908152600360205260409020805460010190555b60008481526002602052604080822080546001600160a01b0319166001600160a01b0389811691821790925591518793918516917fddf252ad1be2c89b69c2b068fc378daa952ba7f163c4a11628f55a4df523b3ef91a4949350505050565b6000610954600083600061084c565b90506001600160a01b03811661040757604051637e27328960e01b815260048101839052602401610431565b6001600160a01b0382166109aa57604051633250574960e11b815260006004820152602401610431565b60006109b88383600061084c565b90506001600160a01b0381161561055a576040516339e3563760e11b815260006004820152602401610431565b6006546001600160a01b031633146106ae5760405163118cdaa760e01b8152336004820152602401610431565b600680546001600160a01b038381166001600160a01b0319831681179093556040519116919082907f8be0079c531659141344cd1fd0a4f28419497f9722a3daafe3b4186f6b6457e090600090a35050565b6001600160a01b038216610a9657604051630b61174360e31b81526001600160a01b0383166004820152602401610431565b6001600160a01b03838116600081815260056020908152604080832094871680845294825291829020805460ff191686151590811790915591519182527f17307eab39ab6107e8899845ad3d59bd9653f200f220920489ca2b5937696c31910160405180910390a3505050565b6001600160a01b0383163b15610c2757604051630a85bd0160e11b81526001600160a01b0384169063150b7a0290610b45908890889087908790600401611471565b6020604051808303816000875af1925050508015610b80575060408051601f3d908101601f19168201909252610b7d918101906114ae565b60015b610be9573d808015610bae576040519150601f19603f3d011682016040523d82523d6000602084013e610bb3565b606091505b508051600003610be157604051633250574960e11b81526001600160a01b0385166004820152602401610431565b805160208201fd5b6001600160e01b03198116630a85bd0160e11b14610c2557604051633250574960e11b81526001600160a01b0385166004820152602401610431565b505b5050505050565b60606000610c3b83610e2b565b600101905060008167ffffffffffffffff811115610c5b57610c5b6110d7565b6040519080825280601f01601f191660200182016040528015610c85576020820181803683370190505b5090508181016020015b600019016f181899199a1a9b1b9c1cb0b131b232b360811b600a86061a8153600a8504945084610c8f57509392505050565b8080610cd557506001600160a01b03821615155b15610d97576000610ce584610806565b90506001600160a01b03831615801590610d115750826001600160a01b0316816001600160a01b031614155b8015610d245750610d22818461079a565b155b15610d4d5760405163a9fbf51f60e01b81526001600160a01b0384166004820152602401610431565b8115610d955783856001600160a01b0316826001600160a01b03167f8c5be1e5ebec7d5bd14f71427d1e84f3dd0314c0f7b2291e5b200ac8c7c3b92560405160405180910390a45b505b5050600090815260046020526040902080546001600160a01b0319166001600160a01b0392909216919091179055565b610dd2838383610f03565b61055a576001600160a01b038316610e0057604051637e27328960e01b815260048101829052602401610431565b60405163177e802f60e01b81526001600160a01b038316600482015260248101829052604401610431565b60008072184f03e93ff9f4daa797ed6e38ed64bf6a1f0160401b8310610e6a5772184f03e93ff9f4daa797ed6e38ed64bf6a1f0160401b830492506040015b6d04ee2d6d415b85acef81000000008310610e96576d04ee2d6d415b85acef8100000000830492506020015b662386f26fc100008310610eb457662386f26fc10000830492506010015b6305f5e1008310610ecc576305f5e100830492506008015b6127108310610ee057612710830492506004015b60648310610ef2576064830492506002015b600a831061033b5760010192915050565b60006001600160a01b03831615801590610f615750826001600160a01b0316846001600160a01b03161480610f3d5750610f3d848461079a565b80610f6157506000828152600460205260409020546001600160a01b038481169116145b949350505050565b6001600160e01b03198116811461080357600080fd5b600060208284031215610f9157600080fd5b813561079381610f69565b60005b83811015610fb7578181015183820152602001610f9f565b50506000910152565b60008151808452610fd8816020860160208601610f9c565b601f01601f19169290920160200192915050565b6020815260006107936020830184610fc0565b60006020828403121561101157600080fd5b5035919050565b80356001600160a01b038116811461102f57600080fd5b919050565b6000806040838503121561104757600080fd5b61105083611018565b946020939093013593505050565b60006020828403121561107057600080fd5b61079382611018565b60008060006060848603121561108e57600080fd5b61109784611018565b92506110a560208501611018565b9150604084013590509250925092565b6040815260006110c86040830185610fc0565b90508260208301529392505050565b634e487b7160e01b600052604160045260246000fd5b600067ffffffffffffffff80841115611108576111086110d7565b604051601f8501601f19908116603f01168101908282118183101715611130576111306110d7565b8160405280935085815286868601111561114957600080fd5b858560208301376000602087830101525050509392505050565b6000806040838503121561117657600080fd5b823567ffffffffffffffff81111561118d57600080fd5b8301601f8101851361119e57600080fd5b6111ad858235602084016110ed565b95602094909401359450505050565b600080604083850312156111cf57600080fd5b6111d883611018565b9150602083013580151581146111ed57600080fd5b809150509250929050565b6000806000806080858703121561120e57600080fd5b61121785611018565b935061122560208601611018565b925060408501359150606085013567ffffffffffffffff81111561124857600080fd5b8501601f8101871361125957600080fd5b611268878235602084016110ed565b91505092959194509250565b6000806040838503121561128757600080fd5b61129083611018565b915061129e60208401611018565b90509250929050565b600181811c908216806112bb57607f821691505b6020821081036112db57634e487b7160e01b600052602260045260246000fd5b50919050565b634e487b7160e01b600052601160045260246000fd5b600060018201611309576113096112e1565b5060010190565b8082018082111561033b5761033b6112e1565b601f82111561055a57600081815260208120601f850160051c8101602086101561134a5750805b601f850160051c820191505b81811015610c2557828155600101611356565b815167ffffffffffffffff811115611383576113836110d7565b6113978161139184546112a7565b84611323565b602080601f8311600181146113cc57600084156113b45750858301515b600019600386901b1c1916600185901b178555610c25565b600085815260208120601f198616915b828110156113fb578886015182559484019460019091019084016113dc565b50858210156114195787850151600019600388901b60f8161c191681555b5050505050600190811b01905550565b828152604060208201526000610f616040830184610fc0565b60008351611454818460208801610f9c565b835190830190611468818360208801610f9c565b01949350505050565b6001600160a01b03858116825284166020820152604081018390526080606082018190526000906114a490830184610fc0565b9695505050505050565b6000602082840312156114c057600080fd5b815161079381610f6956fea26469706673582212203e057c9c91d00ccf116d153193ececf320968ab7fb9a2df7f904b98b5e26109064736f6c63430008140033",
  "linkReferences": {},
  "deployedLinkReferences": {}
}