{
  "_format": "hh-sol-artifact-1",
  "contractName": "SubscriptionNFT",
  "sourceName": "contracts/SubscriptionNFT.sol",
  "abi": [
    {
      "inputs": [],
      "stateMutability": "nonpayable",
      "type": "constructor"
    },
    {
      "inputs": [
        {
          "internalType": "address",
          "name": "sender",
          "type": "address"
        },
        {
          "internalType": "uint256",
          "name": "tokenId",
          "type": "uint256"
        },
        {
          "internalType": "address",
          "name": "owner",
          "type": "address"
        }
      ],
      "name": "ERC721IncorrectOwner",
      "type": "error"
    },
    {
      "inputs": [
        {
          "internalType": "address",
          "name": "operator",
          "type": "address"
        },
        {
          "internalType": "uint256",
          "name": "tokenId",
          "type": "uint256"
        }
      ],
      "name": "ERC721InsufficientApproval",
      "type": "error"
    },
    {
      "inputs": [
        {
          "internalType": "address",
          "name": "approver",
          "type": "address"
        }
      ],
      "name": "ERC721InvalidApprover",
      "type": "error"
    },
    {
      "inputs": [
        {
          "internalType": "address",
          "name": "operator",
          "type": "address"
        }
      ],
      "name": "ERC721InvalidOperator",
      "type": "error"
    },
    {
      "inputs": [
        {
          "internalType": "address",
          "name": "owner",
          "type": "address"
        }
      ],
      "name": "ERC721InvalidOwner",
      "type": "error"
    },
    {
      "inputs": [
        {
          "internalType": "address",
          "name": "receiver",
          "type": "address"
        }
      ],
      "name": "ERC721InvalidReceiver",
      "type": "error"
    },
    {
      "inputs": [
        {
          "internalType": "address",
          "name": "sender",
          "type": "address"
        }
      ],
      "name": "ERC721InvalidSender",
      "type": "error"
    },
    {
      "inputs": [
        {
          "internalType": "uint256",
          "name": "tokenId",
          "type": "uint256"
        }
      ],
      "name": "ERC721NonexistentToken",
      "type": "error"
    },
    {
      "inputs": [
        {
          "internalType": "address",
          "name": "owner",
          "type": "address"
        }
      ],
      "name": "OwnableInvalidOwner",
      "type": "error"
    },
    {
      "inputs": [
        {
          "internalType": "address",
          "name": "account",
          "type": "address"
        }
      ],
      "name": "OwnableUnauthorizedAccount",
      "type": "error"
    },
    {
      "anonymous": false,
      "inputs": [
        {
          "indexed": true,
          "internalType": "address",
          "name": "owner",
          "type": "address"
        },
        {
          "indexed": true,
          "internalType": "address",
          "name": "approved",
          "type": "address"
        },
        {
          "indexed": true,
          "internalType": "uint256",
          "name": "tokenId",
          "type": "uint256"
        }
      ],
      "name": "Approval",
      "type": "event"
    },
    {
      "anonymous": false,
      "inputs": [
        {
          "indexed": true,
          "internalType": "address",
          "name": "owner",
          "type": "address"
        },
        {
          "indexed": true,
          "internalType": "address",
          "name": "operator",
          "type": "address"
        },
        {
          "indexed": false,
          "internalType": "bool",
          "name": "approved",
          "type": "bool"
        }
      ],
      "name": "ApprovalForAll",
      "type": "event"
    },
    {
      "anonymous": false,
      "inputs": [
        {
          "indexed": true,
          "internalType": "address",
          "name": "previousOwner",
          "type": "address"
        },
        {
          "indexed": true,
          "internalType": "address",
          "name": "newOwner",
          "type": "address"
        }
      ],
      "name": "OwnershipTransferred",
      "type": "event"
    },
    {
      "anonymous": false,
      "inputs": [
        {
          "indexed": true,
          "internalType": "address",
          "name": "user",
          "type": "address"
        },
        {
          "indexed": false,
          "internalType": "uint256",
          "name": "tokenId",
          "type": "uint256"
        },
        {
          "indexed": false,
          "internalType": "uint256",
          "name": "tierId",
          "type": "uint256"
        }
      ],
      "name": "SubscriptionMinted",
      "type": "event"
    },
    {
      "anonymous": false,
      "inputs": [
        {
          "indexed": true,
          "internalType": "address",
          "name": "user",
          "type": "address"
        },
        {
          "indexed": false,
          "internalType": "uint256",
          "name": "oldTokenId",
          "type": "uint256"
        },
        {
          "indexed": false,
          "internalType": "uint256",
          "name": "newTokenId",
          "type": "uint256"
        },
        {
          "indexed": false,
          "internalType": "uint256",
          "name": "newTierId",
          "type": "uint256"
        }
      ],
      "name": "SubscriptionUpgraded",
      "type": "event"
    },
    {
      "anonymous": false,
      "inputs": [
        {
          "indexed": false,
          "internalType": "uint256",
          "name": "tierId",
          "type": "uint256"
        },
        {
          "indexed": false,
          "internalType": "string",
          "name": "name",
          "type": "string"
        },
        {
          "indexed": false,
          "internalType": "uint256",
          "name": "price",
          "type": "uint256"
        }
      ],
      "name": "TierCreated",
      "type": "event"
    },
    {
      "anonymous": false,
      "inputs": [
        {
          "indexed": true,
          "internalType": "address",
          "name": "from",
          "type": "address"
        },
        {
          "indexed": true,
          "internalType": "address",
          "name": "to",
          "type": "address"
        },
        {
          "indexed": true,
          "internalType": "uint256",
          "name": "tokenId",
          "type": "uint256"
        }
      ],
      "name": "Transfer",
      "type": "event"
    },
    {
      "inputs": [
        {
          "internalType": "address",
          "name": "",
          "type": "address"
        }
      ],
      "name": "activeSubscription",
      "outputs": [
        {
          "internalType": "uint256",
          "name": "",
          "type": "uint256"
        }
      ],
      "stateMutability": "view",
      "type": "function"
    },
    {
      "inputs": [
        {
          "internalType": "address",
          "name": "to",
          "type": "address"
        },
        {
          "internalType": "uint256",
          "name": "tokenId",
          "type": "uint256"
        }
      ],
      "name": "approve",
      "outputs": [],
      "stateMutability": "nonpayable",
      "type": "function"
    },
    {
      "inputs": [
        {
          "internalType": "address",
          "name": "owner",
          "type": "address"
        }
      ],
      "name": "balanceOf",
      "outputs": [
        {
          "internalType": "uint256",
          "name": "",
          "type": "uint256"
        }
      ],
      "stateMutability": "view",
      "type": "function"
    },
    {
      "inputs": [],
      "name": "cancelSubscription",
      "outputs": [],
      "stateMutability": "nonpayable",
      "type": "function"
    },
    {
      "inputs": [
        {
          "internalType": "string",
          "name": "name",
          "type": "string"
        },
        {
          "internalType": "uint256",
          "name": "price",
          "type": "uint256"
        },
        {
          "internalType": "uint256",
          "name": "duration",
          "type": "uint256"
        }
      ],
      "name": "createTier",
      "outputs": [],
      "stateMutability": "nonpayable",
      "type": "function"
    },
    {
      "inputs": [
        {
          "internalType": "uint256",
          "name": "tokenId",
          "type": "uint256"
        }
      ],
      "name": "getApproved",
      "outputs": [
        {
          "internalType": "address",
          "name": "",
          "type": "address"
        }
      ],
      "stateMutability": "view",
      "type": "function"
    },
    {
      "inputs": [
        {
          "internalType": "address",
          "name": "user",
          "type": "address"
        }
      ],
      "name": "getSubscription",
      "outputs": [
        {
          "internalType": "uint256",
          "name": "tierId",
          "type": "uint256"
        },
        {
          "internalType": "string",
          "name": "tierName",
          "type": "string"
        },
        {
          "internalType": "uint256",
          "name": "expiryDate",
          "type": "uint256"
        },
        {
          "internalType": "bool",
          "name": "active",
          "type": "bool"
        }
      ],
      "stateMutability": "view",
      "type": "function"
    },
    {
      "inputs": [
        {
          "internalType": "address",
          "name": "owner",
          "type": "address"
        },
        {
          "internalType": "address",
          "name": "operator",
          "type": "address"
        }
      ],
      "name": "isApprovedForAll",
      "outputs": [
        {
          "internalType": "bool",
          "name": "",
          "type": "bool"
        }
      ],
      "stateMutability": "view",
      "type": "function"
    },
    {
      "inputs": [
        {
          "internalType": "address",
          "name": "user",
          "type": "address"
        }
      ],
      "name": "isSubscriptionActive",
      "outputs": [
        {
          "internalType": "bool",
          "name": "",
          "type": "bool"
        }
      ],
      "stateMutability": "view",
      "type": "function"
    },
    {
      "inputs": [],
      "name": "name",
      "outputs": [
        {
          "internalType": "string",
          "name": "",
          "type": "string"
        }
      ],
      "stateMutability": "view",
      "type": "function"
    },
    {
      "inputs": [],
      "name": "owner",
      "outputs": [
        {
          "internalType": "address",
          "name": "",
          "type": "address"
        }
      ],
      "stateMutability": "view",
      "type": "function"
    },
    {
      "inputs": [
        {
          "internalType": "uint256",
          "name": "tokenId",
          "type": "uint256"
        }
      ],
      "name": "ownerOf",
      "outputs": [
        {
          "internalType": "address",
          "name": "",
          "type": "address"
        }
      ],
      "stateMutability": "view",
      "type": "function"
    },
    {
      "inputs": [],
      "name": "renounceOwnership",
      "outputs": [],
      "stateMutability": "nonpayable",
      "type": "function"
    },
    {
      "inputs": [
        {
          "internalType": "address",
          "name": "from",
          "type": "address"
        },
        {
          "internalType": "address",
          "name": "to",
          "type": "address"
        },
        {
          "internalType": "uint256",
          "name": "tokenId",
          "type": "uint256"
        }
      ],
      "name": "safeTransferFrom",
      "outputs": [],
      "stateMutability": "nonpayable",
      "type": "function"
    },
    {
      "inputs": [
        {
          "internalType": "address",
          "name": "from",
          "type": "address"
        },
        {
          "internalType": "address",
          "name": "to",
          "type": "address"
        },
        {
          "internalType": "uint256",
          "name": "tokenId",
          "type": "uint256"
        },
        {
          "internalType": "bytes",
          "name": "data",
          "type": "bytes"
        }
      ],
      "name": "safeTransferFrom",
      "outputs": [],
      "stateMutability": "nonpayable",
      "type": "function"
    },
    {
      "inputs": [
        {
          "internalType": "address",
          "name": "operator",
          "type": "address"
        },
        {
          "internalType": "bool",
          "name": "approved",
          "type": "bool"
        }
      ],
      "name": "setApprovalForAll",
      "outputs": [],
      "stateMutability": "nonpayable",
      "type": "function"
    },
    {
      "inputs": [
        {
          "internalType": "uint256",
          "name": "tierId",
          "type": "uint256"
        }
      ],
      "name": "subscribe",
      "outputs": [],
      "stateMutability": "payable",
      "type": "function"
    },
    {
      "inputs": [
        {
          "internalType": "uint256",
          "name": "",
          "type": "uint256"
        }
      ],
      "name": "subscriptions",
      "outputs": [
        {
          "internalType": "uint256",
          "name": "tierId",
          "type": "uint256"
        },
        {
          "internalType": "string",
          "name": "tierName",
          "type": "string"
        },
        {
          "internalType": "uint256",
          "name": "expiryDate",
          "type": "uint256"
        },
        {
          "internalType": "bool",
          "name": "active",
          "type": "bool"
        }
      ],
      "stateMutability": "view",
      "type": "function"
    },
    {
      "inputs": [
        {
          "internalType": "bytes4",
          "name": "interfaceId",
          "type": "bytes4"
        }
      ],
      "name": "supportsInterface",
      "outputs": [
        {
          "internalType": "bool",
          "name": "",
          "type": "bool"
        }
      ],
      "stateMutability": "view",
      "type": "function"
    },
    {
      "inputs": [],
      "name": "symbol",
      "outputs": [
        {
          "internalType": "string",
          "name": "",
          "type": "string"
        }
      ],
      "stateMutability": "view",
      "type": "function"
    },
    {
      "inputs": [],
      "name": "tierCount",
      "outputs": [
        {
          "internalType": "uint256",
          "name": "",
          "type": "uint256"
        }
      ],
      "stateMutability": "view",
      "type": "function"
    },
    {
      "inputs": [
        {
          "internalType": "uint256",
          "name": "",
          "type": "uint256"
        }
      ],
      "name": "tiers",
      "outputs": [
        {
          "internalType": "string",
          "name": "name",
          "type": "string"
        },
        {
          "internalType": "uint256",
          "name": "price",
          "type": "uint256"
        },
        {
          "internalType": "uint256",
          "name": "duration",
          "type": "uint256"
        },
        {
          "internalType": "bool",
          "name": "exists",
          "type": "bool"
        }
      ],
      "stateMutability": "view",
      "type": "function"
    },
    {
      "inputs": [
        {
          "internalType": "uint256",
          "name": "tokenId",
          "type": "uint256"
        }
      ],
      "name": "tokenURI",
      "outputs": [
        {
          "internalType": "string",
          "name": "",
          "type": "string"
        }
      ],
      "stateMutability": "view",
      "type": "function"
    },
    {
      "inputs": [
        {
          "internalType": "address",
          "name": "from",
          "type": "address"
        },
        {
          "internalType": "address",
          "name": "to",
          "type": "address"
        },
        {
          "internalType": "uint256",
          "name": "tokenId",
          "type": "uint256"
        }
      ],
      "name": "transferFrom",
      "outputs": [],
      "stateMutability": "nonpayable",
      "type": "function"
    },
    {
      "inputs": [
        {
          "internalType": "address",
          "name": "newOwner",
          "type": "address"
        }
      ],
      "name": "transferOwnership",
      "outputs": [],
      "stateMutability": "nonpayable",
      "type": "function"
    },
    {
      "inputs": [],
      "name": "withdraw",
      "outputs": [],
      "stateMutability": "nonpayable",
      "type": "function"
    }
  ],
  "bytecode": "0x60806040523480156200001157600080fd5b50336040518060400160405280601481526020017f4775696c64466920537562736372697074696f6e0000000000000000000000008152506040518060400160405280600581526020016423a329aaa160d91b8152508160009081620000789190620001c2565b506001620000878282620001c2565b5050506001600160a01b038116620000b957604051631e4fbdf760e01b81526000600482015260240160405180910390fd5b620000c481620000cb565b506200028e565b600680546001600160a01b038381166001600160a01b0319831681179093556040519116919082907f8be0079c531659141344cd1fd0a4f28419497f9722a3daafe3b4186f6b6457e090600090a35050565b634e487b7160e01b600052604160045260246000fd5b600181811c908216806200014857607f821691505b6020821081036200016957634e487b7160e01b600052602260045260246000fd5b50919050565b601f821115620001bd57600081815260208120601f850160051c81016020861015620001985750805b601f850160051c820191505b81811015620001b957828155600101620001a4565b5050505b505050565b81516001600160401b03811115620001de57620001de6200011d565b620001f681620001ef845462000133565b846200016f565b602080601f8311600181146200022e5760008415620002155750858301515b600019600386901b1c1916600185901b178555620001b9565b600085815260208120601f198616915b828110156200025f578886015182559484019460019091019084016200023e565b50858210156200027e5787850151600019600388901b60f8161c191681555b5050505050600190811b01905550565b611e54806200029e6000396000f3fe6080604052600436106101815760003560e01c806342842e0e116100d157806396b55f7d1161008a578063c87b56dd11610064578063c87b56dd14610460578063c87bb42b14610480578063e985e9c5146104ad578063f2fde38b146104cd57600080fd5b806396b55f7d1461040a578063a22cb46514610420578063b88d4fde1461044057600080fd5b806342842e0e146103545780636352211e1461037457806370a0823114610394578063715018a6146103c25780638da5cb5b146103d757806395d89b41146103f557600080fd5b80630f574ba71161013e57806323b872dd1161011857806323b872dd146102ea57806324e9edb01461030a5780632d5bbf601461031f5780633ccfd60b1461033f57600080fd5b80630f574ba71461029757806314401329146102aa578063151b40de146102ca57600080fd5b806301ffc9a714610186578063039af9eb146101bb57806306fdde03146101eb578063081812fc1461020d578063095ea7b3146102455780630cbebc2414610267575b600080fd5b34801561019257600080fd5b506101a66101a1366004611879565b6104ed565b60405190151581526020015b60405180910390f35b3480156101c757600080fd5b506101db6101d6366004611896565b61053f565b6040516101b294939291906118ff565b3480156101f757600080fd5b506102006105f4565b6040516101b29190611930565b34801561021957600080fd5b5061022d610228366004611896565b610686565b6040516001600160a01b0390911681526020016101b2565b34801561025157600080fd5b5061026561026036600461195f565b6106af565b005b34801561027357600080fd5b50610287610282366004611989565b6106be565b6040516101b294939291906119a4565b6102656102a5366004611896565b610826565b3480156102b657600080fd5b506101a66102c5366004611989565b610b0a565b3480156102d657600080fd5b506102656102e5366004611a61565b610c28565b3480156102f657600080fd5b50610265610305366004611ac3565b610cf7565b34801561031657600080fd5b50610265610d82565b34801561032b57600080fd5b5061028761033a366004611896565b610e2a565b34801561034b57600080fd5b50610265610edf565b34801561036057600080fd5b5061026561036f366004611ac3565b610f23565b34801561038057600080fd5b5061022d61038f366004611896565b610f3e565b3480156103a057600080fd5b506103b46103af366004611989565b610f49565b6040519081526020016101b2565b3480156103ce57600080fd5b50610265610f91565b3480156103e357600080fd5b506006546001600160a01b031661022d565b34801561040157600080fd5b50610200610fa5565b34801561041657600080fd5b506103b4600b5481565b34801561042c57600080fd5b5061026561043b366004611aff565b610fb4565b34801561044c57600080fd5b5061026561045b366004611b3b565b610fbf565b34801561046c57600080fd5b5061020061047b366004611896565b610fd7565b34801561048c57600080fd5b506103b461049b366004611989565b600a6020526000908152604090205481565b3480156104b957600080fd5b506101a66104c8366004611bb7565b61104c565b3480156104d957600080fd5b506102656104e8366004611989565b61107a565b60006001600160e01b031982166380ac58cd60e01b148061051e57506001600160e01b03198216635b5e139f60e01b145b8061053957506301ffc9a760e01b6001600160e01b03198316145b92915050565b60096020526000908152604090208054819061055a90611bea565b80601f016020809104026020016040519081016040528092919081815260200182805461058690611bea565b80156105d35780601f106105a8576101008083540402835291602001916105d3565b820191906000526020600020905b8154815290600101906020018083116105b657829003601f168201915b50505050600183015460028401546003909401549293909290915060ff1684565b60606000805461060390611bea565b80601f016020809104026020016040519081016040528092919081815260200182805461062f90611bea565b801561067c5780601f106106515761010080835404028352916020019161067c565b820191906000526020600020905b81548152906001019060200180831161065f57829003601f168201915b5050505050905090565b6000610691826110b5565b506000828152600460205260409020546001600160a01b0316610539565b6106ba8282336110ee565b5050565b6001600160a01b0381166000908152600a60205260408120546060908290819080820361072b5760405162461bcd60e51b815260206004820152601660248201527527379030b1ba34bb329039bab139b1b934b83a34b7b760511b60448201526064015b60405180910390fd5b6000600860008381526020019081526020016000206040518060800160405290816000820154815260200160018201805461076590611bea565b80601f016020809104026020016040519081016040528092919081815260200182805461079190611bea565b80156107de5780601f106107b3576101008083540402835291602001916107de565b820191906000526020600020905b8154815290600101906020018083116107c157829003601f168201915b5050509183525050600282015460208083019190915260039092015460ff16151560409182015282519183015190830151606090930151919a90995091975095509350505050565b60008181526009602052604090206003015460ff1661087d5760405162461bcd60e51b8152602060048201526013602482015272151a595c88191bd95cc81b9bdd08195e1a5cdd606a1b6044820152606401610722565b6000818152600960205260409020600101543410156108d55760405162461bcd60e51b8152602060048201526014602482015273125b9cdd59999a58da595b9d081c185e5b595b9d60621b6044820152606401610722565b336000908152600a60205260409020548015610927576108f4816110fb565b6000818152600860205260408120818155906109136001830182611815565b5060006002820155600301805460ff191690555b6007805490600061093783611c3a565b90915550506007546109493382611136565b604080516080810182528481526000858152600960209081529290208054919283019161097590611bea565b80601f01602080910402602001604051908101604052809291908181526020018280546109a190611bea565b80156109ee5780601f106109c3576101008083540402835291602001916109ee565b820191906000526020600020905b8154815290600101906020018083116109d157829003601f168201915b50505050508152602001600960008681526020019081526020016000206002015442610a1a9190611c53565b81526001602091820181905260008481526008835260409020835181559183015190820190610a499082611cac565b5060408281015160028301556060909201516003909101805460ff1916911515919091179055336000908152600a602052208190558115610acd57604080518381526020810183905290810184905233907f7bd0f397cad502ff77ef77218a9bc164a74f31a190560438785c85c38c3f64dd906060015b60405180910390a2505050565b604080518281526020810185905233917f89ae342556facfe24e8aeaabc4e3f1a40f1a0e625ef6a2d208446d3bbf68b45a9101610ac0565b505050565b6001600160a01b0381166000908152600a6020526040812054808203610b335750600092915050565b60006008600083815260200190815260200160002060405180608001604052908160008201548152602001600182018054610b6d90611bea565b80601f0160208091040260200160405190810160405280929190818152602001828054610b9990611bea565b8015610be65780601f10610bbb57610100808354040283529160200191610be6565b820191906000526020600020905b815481529060010190602001808311610bc957829003601f168201915b50505091835250506002820154602082015260039091015460ff16151560409091015260608101519091508015610c205750806040015142105b949350505050565b610c3061119b565b600b8054906000610c4083611c3a565b909155505060408051608081018252848152602080820185905281830184905260016060830152600b54600090815260099091529190912081518190610c869082611cac565b506020820151600182015560408083015160028301556060909201516003909101805460ff1916911515919091179055600b5490517f0e0604e052b3c03f749dfaeca4395de2957f31a3896ee0324a805511e072476e91610cea9186908690611d6c565b60405180910390a1505050565b6001600160a01b038216610d2157604051633250574960e11b815260006004820152602401610722565b6000610d2e8383336111c8565b9050836001600160a01b0316816001600160a01b031614610d7c576040516364283d7b60e01b81526001600160a01b0380861660048301526024820184905282166044820152606401610722565b50505050565b336000908152600a602052604081205490819003610ddb5760405162461bcd60e51b815260206004820152601660248201527527379030b1ba34bb329039bab139b1b934b83a34b7b760511b6044820152606401610722565b610de4816110fb565b600081815260086020526040812081815590610e036001830182611815565b506000600282018190556003909101805460ff19169055338152600a602052604081205550565b60086020526000908152604090208054600182018054919291610e4c90611bea565b80601f0160208091040260200160405190810160405280929190818152602001828054610e7890611bea565b8015610ec55780601f10610e9a57610100808354040283529160200191610ec5565b820191906000526020600020905b815481529060010190602001808311610ea857829003601f168201915b50505050600283015460039093015491929160ff16905084565b610ee761119b565b6006546040516001600160a01b03909116904780156108fc02916000818181858888f19350505050158015610f20573d6000803e3d6000fd5b50565b610b0583838360405180602001604052806000815250610fbf565b6000610539826110b5565b60006001600160a01b038216610f75576040516322718ad960e21b815260006004820152602401610722565b506001600160a01b031660009081526003602052604090205490565b610f9961119b565b610fa360006112c1565b565b60606001805461060390611bea565b6106ba338383611313565b610fca848484610cf7565b610d7c33858585856113b2565b6060610fe2826110b5565b506000610ffa60408051602081019091526000815290565b9050600081511161101a5760405180602001604052806000815250611045565b80611024846114dd565b604051602001611035929190611d95565b6040516020818303038152906040525b9392505050565b6001600160a01b03918216600090815260056020908152604080832093909416825291909152205460ff1690565b61108261119b565b6001600160a01b0381166110ac57604051631e4fbdf760e01b815260006004820152602401610722565b610f20816112c1565b6000818152600260205260408120546001600160a01b03168061053957604051637e27328960e01b815260048101849052602401610722565b610b058383836001611570565b600061110a60008360006111c8565b90506001600160a01b0381166106ba57604051637e27328960e01b815260048101839052602401610722565b6001600160a01b03821661116057604051633250574960e11b815260006004820152602401610722565b600061116e838360006111c8565b90506001600160a01b03811615610b05576040516339e3563760e11b815260006004820152602401610722565b6006546001600160a01b03163314610fa35760405163118cdaa760e01b8152336004820152602401610722565b6000828152600260205260408120546001600160a01b03908116908316156111f5576111f5818486611676565b6001600160a01b0381161561123357611212600085600080611570565b6001600160a01b038116600090815260036020526040902080546000190190555b6001600160a01b03851615611262576001600160a01b0385166000908152600360205260409020805460010190555b60008481526002602052604080822080546001600160a01b0319166001600160a01b0389811691821790925591518793918516917fddf252ad1be2c89b69c2b068fc378daa952ba7f163c4a11628f55a4df523b3ef91a4949350505050565b600680546001600160a01b038381166001600160a01b0319831681179093556040519116919082907f8be0079c531659141344cd1fd0a4f28419497f9722a3daafe3b4186f6b6457e090600090a35050565b6001600160a01b03821661134557604051630b61174360e31b81526001600160a01b0383166004820152602401610722565b6001600160a01b03838116600081815260056020908152604080832094871680845294825291829020805460ff191686151590811790915591519182527f17307eab39ab6107e8899845ad3d59bd9653f200f220920489ca2b5937696c31910160405180910390a3505050565b6001600160a01b0383163b156114d657604051630a85bd0160e11b81526001600160a01b0384169063150b7a02906113f4908890889087908790600401611dc4565b6020604051808303816000875af192505050801561142f575060408051601f3d908101601f1916820190925261142c91810190611e01565b60015b611498573d80801561145d576040519150601f19603f3d011682016040523d82523d6000602084013e611462565b606091505b50805160000361149057604051633250574960e11b81526001600160a01b0385166004820152602401610722565b805160208201fd5b6001600160e01b03198116630a85bd0160e11b146114d457604051633250574960e11b81526001600160a01b0385166004820152602401610722565b505b5050505050565b606060006114ea836116da565b600101905060008167ffffffffffffffff81111561150a5761150a6119d5565b6040519080825280601f01601f191660200182016040528015611534576020820181803683370190505b5090508181016020015b600019016f181899199a1a9b1b9c1cb0b131b232b360811b600a86061a8153600a850494508461153e57509392505050565b808061158457506001600160a01b03821615155b15611646576000611594846110b5565b90506001600160a01b038316158015906115c05750826001600160a01b0316816001600160a01b031614155b80156115d357506115d1818461104c565b155b156115fc5760405163a9fbf51f60e01b81526001600160a01b0384166004820152602401610722565b81156116445783856001600160a01b0316826001600160a01b03167f8c5be1e5ebec7d5bd14f71427d1e84f3dd0314c0f7b2291e5b200ac8c7c3b92560405160405180910390a45b505b5050600090815260046020526040902080546001600160a01b0319166001600160a01b0392909216919091179055565b6116818383836117b2565b610b05576001600160a01b0383166116af57604051637e27328960e01b815260048101829052602401610722565b60405163177e802f60e01b81526001600160a01b038316600482015260248101829052604401610722565b60008072184f03e93ff9f4daa797ed6e38ed64bf6a1f0160401b83106117195772184f03e93ff9f4daa797ed6e38ed64bf6a1f0160401b830492506040015b6d04ee2d6d415b85acef81000000008310611745576d04ee2d6d415b85acef8100000000830492506020015b662386f26fc10000831061176357662386f26fc10000830492506010015b6305f5e100831061177b576305f5e100830492506008015b612710831061178f57612710830492506004015b606483106117a1576064830492506002015b600a83106105395760010192915050565b60006001600160a01b03831615801590610c205750826001600160a01b0316846001600160a01b031614806117ec57506117ec848461104c565b80610c205750506000908152600460205260409020546001600160a01b03908116911614919050565b50805461182190611bea565b6000825580601f10611831575050565b601f016020900490600052602060002090810190610f2091905b8082111561185f576000815560010161184b565b5090565b6001600160e01b031981168114610f2057600080fd5b60006020828403121561188b57600080fd5b813561104581611863565b6000602082840312156118a857600080fd5b5035919050565b60005b838110156118ca5781810151838201526020016118b2565b50506000910152565b600081518084526118eb8160208601602086016118af565b601f01601f19169290920160200192915050565b60808152600061191260808301876118d3565b60208301959095525060408101929092521515606090910152919050565b60208152600061104560208301846118d3565b80356001600160a01b038116811461195a57600080fd5b919050565b6000806040838503121561197257600080fd5b61197b83611943565b946020939093013593505050565b60006020828403121561199b57600080fd5b61104582611943565b8481526080602082015260006119bd60808301866118d3565b60408301949094525090151560609091015292915050565b634e487b7160e01b600052604160045260246000fd5b600067ffffffffffffffff80841115611a0657611a066119d5565b604051601f8501601f19908116603f01168101908282118183101715611a2e57611a2e6119d5565b81604052809350858152868686011115611a4757600080fd5b858560208301376000602087830101525050509392505050565b600080600060608486031215611a7657600080fd5b833567ffffffffffffffff811115611a8d57600080fd5b8401601f81018613611a9e57600080fd5b611aad868235602084016119eb565b9660208601359650604090950135949350505050565b600080600060608486031215611ad857600080fd5b611ae184611943565b9250611aef60208501611943565b9150604084013590509250925092565b60008060408385031215611b1257600080fd5b611b1b83611943565b915060208301358015158114611b3057600080fd5b809150509250929050565b60008060008060808587031215611b5157600080fd5b611b5a85611943565b9350611b6860208601611943565b925060408501359150606085013567ffffffffffffffff811115611b8b57600080fd5b8501601f81018713611b9c57600080fd5b611bab878235602084016119eb565b91505092959194509250565b60008060408385031215611bca57600080fd5b611bd383611943565b9150611be160208401611943565b90509250929050565b600181811c90821680611bfe57607f821691505b602082108103611c1e57634e487b7160e01b600052602260045260246000fd5b50919050565b634e487b7160e01b600052601160045260246000fd5b600060018201611c4c57611c4c611c24565b5060010190565b8082018082111561053957610539611c24565b601f821115610b0557600081815260208120601f850160051c81016020861015611c8d5750805b601f850160051c820191505b818110156114d457828155600101611c99565b815167ffffffffffffffff811115611cc657611cc66119d5565b611cda81611cd48454611bea565b84611c66565b602080601f831160018114611d0f5760008415611cf75750858301515b600019600386901b1c1916600185901b1785556114d4565b600085815260208120601f198616915b82811015611d3e57888601518255948401946001909101908401611d1f565b5085821015611d5c5787850151600019600388901b60f8161c191681555b5050505050600190811b01905550565b838152606060208201526000611d8560608301856118d3565b9050826040830152949350505050565b60008351611da78184602088016118af565b835190830190611dbb8183602088016118af565b01949350505050565b6001600160a01b0385811682528416602082015260408101839052608060608201819052600090611df7908301846118d3565b9695505050505050565b600060208284031215611e1357600080fd5b81516110458161186356fea26469706673582212203e6a4bab45c8f7d442104ea81db1c07f4dd8b4f9c8c81dccf86babf899cb76b664736f6c63430008140033",
  "linkReferences": {},
  "deployedLinkReferences": {}
}